{"abi":[{"type":"function","name":"VERSION","inputs":[],"outputs":[{"name":"","type":"string","internalType":"string"}],"stateMutability":"view"},{"type":"function","name":"executeEscrowedSwap","inputs":[{"name":"","type":"tuple","internalType":"struct RFQSettlement.RFQ","components":[{"name":"id","type":"bytes32","internalType":"bytes32"},{"name":"creator","type":"address","internalType":"address"},{"name":"baseToken","type":"address","internalType":"address"},{"name":"quoteToken","type":"address","internalType":"address"},{"name":"baseAmount","type":"uint256","internalType":"uint256"},{"name":"quoteAmount","type":"uint256","internalType":"uint256"}]},{"name":"","type":"address","internalType":"address"}],"outputs":[],"stateMutability":"pure"},{"type":"function","name":"executePartialFill","inputs":[{"name":"","type":"tuple","internalType":"struct RFQSettlement.RFQ","components":[{"name":"id","type":"bytes32","internalType":"bytes32"},{"name":"creator","type":"address","internalType":"address"},{"name":"baseToken","type":"address","internalType":"address"},{"name":"quoteToken","type":"address","internalType":"address"},{"name":"baseAmount","type":"uint256","internalType":"uint256"},{"name":"quoteAmount","type":"uint256","internalType":"uint256"}]},{"name":"","type":"uint256","internalType":"uint256"}],"outputs":[],"stateMutability":"pure"},{"type":"function","name":"executeSwap","inputs":[{"name":"rfq","type":"tuple","internalType":"struct RFQSettlement.RFQ","components":[{"name":"id","type":"bytes32","internalType":"bytes32"},{"name":"creator","type":"address","internalType":"address"},{"name":"baseToken","type":"address","internalType":"address"},{"name":"quoteToken","type":"address","internalType":"address"},{"name":"baseAmount","type":"uint256","internalType":"uint256"},{"name":"quoteAmount","type":"uint256","internalType":"uint256"}]}],"outputs":[],"stateMutability":"nonpayable"},{"type":"function","name":"getVersion","inputs":[],"outputs":[{"name":"","type":"string","internalType":"string"}],"stateMutability":"pure"},{"type":"event","name":"TradeExecuted","inputs":[{"name":"rfqId","type":"bytes32","indexed":true,"internalType":"bytes32"},{"name":"creator","type":"address","indexed":true,"internalType":"address"},{"name":"acceptor","type":"address","indexed":true,"internalType":"address"},{"name":"baseToken","type":"address","indexed":false,"internalType":"address"},{"name":"quoteToken","type":"address","indexed":false,"internalType":"address"},{"name":"baseAmount","type":"uint256","indexed":false,"internalType":"uint256"},{"name":"quoteAmount","type":"uint256","indexed":false,"internalType":"uint256"}],"anonymous":false},{"type":"error","name":"SafeERC20FailedOperation","inputs":[{"name":"token","type":"address","internalType":"address"}]}],"bytecode":{"object":"0x608060405234801561000f575f80fd5b506109438061001d5f395ff3fe608060405234801561000f575f80fd5b5060043610610055575f3560e01c80630d8e6e2c146100595780631d5d71a61461008c57806330c56be3146100a1578063aadc3b38146100b4578063ffa1ad74146100c7575b5f80fd5b6040805180820190915260058152640312e302e360dc1b60208201525b60405161008391906107e4565b60405180910390f35b61009f61009a366004610846565b6100eb565b005b61009f6100af366004610882565b610693565b61009f6100c23660046108b4565b6106e9565b610076604051806040016040528060058152602001640312e302e360dc1b81525081565b5f6100fc60408301602084016108dd565b6001600160a01b0316036101575760405162461bcd60e51b815260206004820152601760248201527f496e76616c69642063726561746f72206164647265737300000000000000000060448201526064015b60405180910390fd5b336101a45760405162461bcd60e51b815260206004820152601860248201527f496e76616c6964206163636570746f7220616464726573730000000000000000604482015260640161014e565b5f6101b560608301604084016108dd565b6001600160a01b03160361020b5760405162461bcd60e51b815260206004820152601a60248201527f496e76616c6964206261736520746f6b656e2061646472657373000000000000604482015260640161014e565b5f61021c60808301606084016108dd565b6001600160a01b0316036102725760405162461bcd60e51b815260206004820152601b60248201527f496e76616c69642071756f746520746f6b656e20616464726573730000000000604482015260640161014e565b5f8160800135116102d35760405162461bcd60e51b815260206004820152602560248201527f4261736520616d6f756e74206d7573742062652067726561746572207468616e604482015264207a65726f60d81b606482015260840161014e565b5f8160a00135116103355760405162461bcd60e51b815260206004820152602660248201527f51756f746520616d6f756e74206d7573742062652067726561746572207468616044820152656e207a65726f60d01b606482015260840161014e565b61034560408201602083016108dd565b6001600160a01b031633036103a85760405162461bcd60e51b815260206004820152602360248201527f43726561746f722063616e6e6f7420616363657074207468656972206f776e2060448201526252465160e81b606482015260840161014e565b60808101356103bd60608301604084016108dd565b6001600160a01b031663dd62ed3e6103db60408501602086016108dd565b6040516001600160e01b031960e084901b1681526001600160a01b039091166004820152306024820152604401602060405180830381865afa158015610423573d5f803e3d5ffd5b505050506040513d601f19601f8201168201806040525081019061044791906108f6565b10156104ac5760405162461bcd60e51b815260206004820152602e60248201527f496e73756666696369656e74206261736520746f6b656e20616c6c6f77616e6360448201526d3290333937b69031b932b0ba37b960911b606482015260840161014e565b60a08101356104c160808301606084016108dd565b604051636eb1769f60e11b81523360048201523060248201526001600160a01b03919091169063dd62ed3e90604401602060405180830381865afa15801561050b573d5f803e3d5ffd5b505050506040513d601f19601f8201168201806040525081019061052f91906108f6565b10156105965760405162461bcd60e51b815260206004820152603060248201527f496e73756666696369656e742071756f746520746f6b656e20616c6c6f77616e60448201526f31b290333937b69030b1b1b2b83a37b960811b606482015260840161014e565b336105a760408301602084016108dd565b6001600160a01b031682357f83cad772ac2b0db95ad2de681f284a78e3a06dadf88d1253b137de40eb0b814d6105e360608601604087016108dd565b6105f360808701606088016108dd565b604080516001600160a01b0393841681529290911660208301526080808801359183019190915260a087013560608301520160405180910390a461066761064060408301602084016108dd565b33608084013561065660608601604087016108dd565b6001600160a01b031692919061073b565b6106903361067b60408401602085016108dd565b60a084013561065660808601606087016108dd565b50565b60405162461bcd60e51b815260206004820152602560248201527f457363726f7720736574746c656d656e74206e6f742079657420696d706c656d604482015264195b9d195960da1b606482015260840161014e565b60405162461bcd60e51b815260206004820152602160248201527f5061727469616c2066696c6c73206e6f742079657420696d706c656d656e74656044820152601960fa1b606482015260840161014e565b610749848484846001610777565b61077157604051635274afe760e01b81526001600160a01b038516600482015260240161014e565b50505050565b6040516323b872dd60e01b5f8181526001600160a01b038781166004528616602452604485905291602083606481808c5af1925060015f511483166107d35783831516156107c7573d5f823e3d81fd5b5f883b113d1516831692505b604052505f60605295945050505050565b5f602080835283518060208501525f5b81811015610810578581018301518582016040015282016107f4565b505f604082860101526040601f19601f8301168501019250505092915050565b5f60c08284031215610840575f80fd5b50919050565b5f60c08284031215610856575f80fd5b6108608383610830565b9392505050565b80356001600160a01b038116811461087d575f80fd5b919050565b5f8060e08385031215610893575f80fd5b61089d8484610830565b91506108ab60c08401610867565b90509250929050565b5f8060e083850312156108c5575f80fd5b6108cf8484610830565b9460c0939093013593505050565b5f602082840312156108ed575f80fd5b61086082610867565b5f60208284031215610906575f80fd5b505191905056fea2646970667358221220c50065f61d1be78e90609c0545cea99150843cc08baff6677cd97e2b19f59eba64736f6c63430008180033","linkReferences":{}},"methodIdentifiers":{"VERSION()":"ffa1ad74","executeEscrowedSwap((bytes32,address,address,address,uint256,uint256),address)":"30c56be3","executePartialFill((bytes32,address,address,address,uint256,uint256),uint256)":"aadc3b38","executeSwap((bytes32,address,address,address,uint256,uint256))":"1d5d71a6","getVersion()":"0d8e6e2c"},"id":32}